:10000000021A6B02006EAE070220A60219CFB2EEF2
:0100100032BD
:06001300022049B2ED32AB
:06001B0002000EB2EC32FF
:06002300021CD5B2EB3215
:10002B00021736EF6401700443BC802253BC7F225D
:03003B0002139E0F
:03004300021C7F1D
:03004B00021E0C86
:0300530002205C2C
:03005B0002206F11
:0300630002001682
:10006B000215CCC0E0C083C0829004567401F0D05E
:06007B0082D083D0E032C8
:03008300022082D6
:03008B00021BCF86
:03009300021C2725
:03009B0002001E42
:0300A30002002632
:0300AB000220959B
:0C00B300021FE525640A003636360A00FC
:1000C30002191F90041AEBF0A3EAF0A3E9F09004DD
:1000D30019EFF0640160030202AD900000F0A3F099
:1000E300A3F0A3F0A3F090041DF0A3F090041DE08F
:1000F300FEA3E0FFC39480EE9400501C74542FF5CC
:100103008274013EF583E4F090041EE004F070DC99
:1001130090041DE004F080D4E490041DF0A3F0905B
:10012300041DE0FEA3E0FFC39480EE9400501C7412
:10013300142FF58274003EF583E4F090041EE0046E
:10014300F070DC90041DE004F080D490041AE0FB0E
:10015300A3E0FAA3E0F912082AFFE598543F4FF50C
:1001630098EF64C06008EF6440600302025290009D
:1001730002120A277F807E8D7D5B7C0012097190BD
:10018300041F120A57E4FFFE7D01FC90041FE0F8F0
:10019300A3E0F9A3E0FAA3E0FBC3120A0340037F41
:1001A300FF2290041FE0F8A3E0F9A3E0FAA3E0FB29
:1001B300C3E49BFFE49AFE740199FDE498FC900468
:1001C3001F120A5790041AE0FBA3E0FAA3E0F99088
:1001D3000001120843FB7A0064017038C28E538E0B
:1001E300FE5389BF5389CF438E4090041FE0FCA385
:1001F300E0FDA3E0FEA3E0FF7808120A148F8D90C0
:10020300041FA3A3A3E0F58BC2AB5389BF538FFD98
:10021300D28E807AEB64024A7032538EEF438E01A2
:10022300538EF7438E0490041FE0FCA3E0FDA3E08C
:10023300FEA3E0FF7808120A148FD690041FA3A32D
:10024300A3E0F5D753AFFB438E1080427FFF22908C
:10025300041AE0FBA3E0FAA3E0F912082AFF7E00E8
:10026300701490000812084364017005438E2080C7
:100273001D538EDF8018EF64804E701290000812B9
:10028300084364017005438780800353877F90048C
:100293001AE0FBA3E0FAA3E0F99000071208437009
:1002A30004C29C8002D29C7F0022900419E0640265
:1002B30060030203FB900005F0A3F0A3F0A3F0A3F7
:1002C300F090041DF0A3F090041DE0FEA3E0FFC333
:1002D3009480EE9400501C74142FF58274023EF542
:1002E30083E4F090041EE004F070DC90041DE0044D
:1002F300F080D4E490041DF0A3F090041DE0FEA36D
:10030300E0FFC39480EE9400501C74942FF5827424
:10031300003EF583E4F090041EE004F070DC9004EA
:100323001DE004F080D490041AE0FBA3E0FAA3E0FC
:10033300F912082AFF7E0064C06008EF644060037E
:100343000203D9EF64C04E7005439A808003539A29
:100353007F900002120A277F807E8D7D5B7C0012D6
:10036300097190041F120A57E4FFFE7D01FC9004FB
:100373001FE0F8A3E0F9A3E0FAA3E0FBC3120A032A
:1003830040037FFF2290041FE0F8A3E0F9A3E0FA03
:10039300A3E0FBC3E49BFFE49AFE740199FDE49898
:1003A300FC90041F120A57538EEF538EF7438E04AB
:1003B30090041FE0FCA3E0FDA3E0FEA3E0FF7808A8
:1003C300120A148FD690041FA3A3A3E0F5D753AF4B
:1003D300FB438E1080037FFF2290041AE0FBA3E00F
:1003E300FAA3E0F9900007120843C454F0FFE59A1A
:1003F30054EF4FF59A7F0022900419E064036003E1
:1004030002059690000AF0A3F0A3F0A3F0A3F090E6
:10041300041DF0A3F090041DE0FEA3E0FFC394408D
:10042300EE9400501C74942FF58274023EF583E41D
:10043300F090041EE004F070DC90041DE004F080F2
:10044300D4E490041DF0A3F090041DE0FEA3E0FFAC
:10045300C39440EE9400501C74142FF58274013E33
:10046300F583E4F090041EE004F070DC90041DE0DA
:1004730004F080D490041AE0FBA3E0FAA3E0F9129D
:10048300082AFF7E0064C06008EF64406003020531
:1004930074EF64C04E700543AC80800353AC7F900F
:1004A3000002120A277F807E8D7D5B7C001209711A
:1004B30090041F120A57E4FFFE7D01FC90041FE025
:1004C300F8A3E0F9A3E0FAA3E0FBC3120A03400395
:1004D3007FFF2290041FE0F8A3E0F9A3E0FAA3E072
:1004E300FBC3E49BFFE49AFE740199FDE498FC903E
:1004F300041F120A5790041AE0FBA3E0FAA3E0F9E1
:10050300900001120843FB7A006403702943AC4056
:1005130090041FE0FCA3E0FDA3E0FEA3E0FF780846
:10052300120A148FD490041FA3A3A3E0F5D553D1CB
:10053300F043D10A803EEB64024A7032538EEF538C
:10054300ACBF538EF7438E0490041FE0FCA3E0FD81
:10055300A3E0FEA3E0FF7808120A148FD690041FCD
:10056300A3A3A3E0F5D753AFFB438E1080067FFF11
:10057300227FFF2290041AE0FBA3E0FAA3E0F990A4
:100583000007120843C454F0FFE5AC54EF4FF5AC39
:100593007F0022900419E064046003020731900095
:1005A3000FF0A3F0A3F0A3F0A3F090041DF0A3F0C9
:1005B30090041DE0FEA3E0FFC39440EE9400501CA2
:1005C30074D42FF58274023EF583E4F090041EE0A8
:1005D30004F070DC90041DE004F080D4E490041D6A
:1005E300F0A3F090041DE0FEA3E0FFC39440EE945B
:1005F30000501C74D42FF58274013EF583E4F0900F
:10060300041EE004F070DC90041DE004F080D4903C
:10061300041AE0FBA3E0FAA3E0F912082AFF7E0024
:1006230064C06008EF6440600302070FEF64C04ECC
:100633007005438480800353847F900002120A274D
:100643007F807E8D7D5B7C0012097190041F120AEE
:1006530057E4FFFE7D01FC90041FE0F8A3E0F9A33B
:10066300E0FAA3E0FBC3120A0340037FFF229004D6
:100673001FE0F8A3E0F9A3E0FAA3E0FBC3E49BFFC8
:10068300E49AFE740199FDE498FC90041F120A5742
:1006930090041AE0FBA3E0FAA3E0F990000112082A
:1006A30043FB7A006404702943844090041FE0FCF8
:1006B300A3E0FDA3E0FEA3E0FF7808120A148FD2A3
:1006C30090041FA3A3A3E0F5D353D10F43D1A0807C
:1006D3003EEB64024A7032538EEF5384BF538EF75E
:1006E300438E0490041FE0FCA3E0FDA3E0FEA3E01F
:1006F300FF7808120A148FD690041FA3A3A3E0F572
:10070300D753AFFB438E1080067FFF227FFF2290DB
:10071300041AE0FBA3E0FAA3E0F9900007120843F0
:10072300C454F0FFE58454EF4FF5847F00227FFF2C
:1007330022E709F608DFFA8046E709F208DFFA80C4
:100743003E88828C83E709F0A3DFFA8032E309F65F
:1007530008DFFA8078E309F208DFFA807088828C78
:1007630083E309F0A3DFFA806489828A83E0A3F636
:1007730008DFFA805889828A83E0A3F208DFFA80CF
:100783004C80D280FA80C680D4806980F280338026
:100793001080A680EA809A80A880DA80E280CA80EE
:1007A3003389828A83ECFAE493A3C8C582C8CCC593
:1007B30083CCF0A3C8C582C8CCC583CCDFE9DEE710
:1007C300800D89828A83E493A3F608DFF9ECFAA902
:1007D300F0EDFB2289828A83ECFAE0A3C8C582C8C4
:1007E300CCC583CCF0A3C8C582C8CCC583CCDFEA13
:1007F300DEE880DB89828A83E493A3F208DFF98051
:10080300CC88F0EF60010E4E60C388F0ED2402B493
:10081300040050B9F582EB2402B4040050AF232343
:1008230045822390078473BB010689828A83E02271
:100833005002E722BBFE02E32289828A83E49322E9
:10084300BB010CE58229F582E5833AF583E022506A
:1008530006E92582F8E622BBFE06E92582F8E222B4
:10086300E58229F582E5833AF583E49322BB010609
:1008730089828A83F0225002F722BBFE01F322C54C
:10088300F0F8A3E028F0C5F0F8E5821582700215B0
:1008930083E038F022A3F8E0C5F025F0F0E58215F7
:1008A3008270021583E0C838F0E822BB0110E582AC
:1008B30029F582E5833AF583E0F5F0A3E0225009B8
:1008C300E92582F886F008E622BBFE0AE92582F8CC
:1008D300E2F5F008E222E5832AF583E993F5F0A334
:1008E300E99322E88FF0A4CC8BF0A42CFCE98EF0E2
:1008F300A42CFC8AF0EDA42CFCEA8EF0A4CDA8F085
:100903008BF0A42DCC3825F0FDE98FF0A42CCD3548
:10091300F0FCEB8EF0A4FEA9F0EB8FF0A4CFC5F0B2
:100923002ECD39FEE43CFCEAA42DCE35F0FDE43CAB
:10093300FC2275F008758200EF2FFFEE33FECD33F6
:10094300CDCC33CCC58233C5829BED9AEC99E5823D
:1009530098400CF582EE9BFEED9AFDEC99FC0FD5C9
:10096300F0D6E4CEFBE4CDFAE4CCF9A88222B800B9
:10097300C1B90059BA002DEC8BF084CFCECDFCE584
:10098300F0CBF97818EF2FFFEE33FEED33FDEC33A8
:10099300FCEB33FB10D703994004EB99FB0FD8E52D
:1009A300E4F9FA227818EF2FFFEE33FEED33FDEC76
:1009B30033FCC933C910D7059BE99A4007EC9BFC6C
:1009C300E99AF90FD8E0E4C9FAE4CCFB2275F010F8
:1009D300EF2FFFEE33FEED33FDCC33CCC833C8101D
:1009E300D7079BEC9AE899400AED9BFDEC9AFCE84B
:1009F30099F80FD5F0DAE4CDFBE4CCFAE4C8F92298
:100A0300EB9FF5F0EA9E42F0E99D42F0E89C45F049
:100A130022E8600FECC313FCED13FDEE13FEEF139E
:100A2300FFD8F122BB010DE58229F582E5833AF572
:100A330083020ACE5007E92582F8020AC1BBFE07EA
:100A4300E92582F8020ADAE58229F582E5833AF597
:100A530083020AE7ECF0A3EDF0A3EEF0A3EFF0229C
:100A6300A8828583F0D083D082120A7A120A7A127E
:100A73000A7A120A7AE473E493A3C583C5F0C583A3
:100A8300C8C582C8F0A3C583C5F0C583C8C582C8DD
:100A930022D083D082F8E4937012740193700DA373
:100AA300A393F8740193F5828883E473740293B576
:100AB300F0067403936860E9A3A3A3A380D8E6FBBD
:100AC30008E6F908E6FA08E6CBF822E0F8A3E0F92D
:100AD300A3E0FAA3E0FB22E2FB08E2F908E2FA084A
:100AE300E2CBF822E493F8740193F9740293FA7455
:100AF3000393FB22F8E0FBA3A3E0F925F0F0E582E2
:100B0300158270021583E0FA38F022EBF0A3EAF0C5
:100B1300A3E9F022D083D082F8E493701274019396
:100B2300700DA3A393F8740193F5828883E473741F
:100B330002936860EFA3A3A380DFE50824E8F582AE
:100B4300E43403F583E00508229003E5301B0390AA
:100B530003E8E475F001120AF702082A2014E97F7A
:100B63002ED2148018EF540F2490D43440D4FF3085
:100B7300180BEF24BFB41A0050032461FFE509608A
:100B8300021509050CE50C7002050B301B0E9003D2
:100B9300E5E475F001120AF7EF020870020006742B
:100BA30003D21B8003E4C21BF5089003E5120B0E6E
:100BB300E4F509F50BF50CE50960077F20120B80BE
:100BC30080F5750AFFC215C214C216C217C219C234
:100BD3001AC21C120B4CFF700D301B057F00120B49
:100BE30091AF0CAE0B22B4255FC2D5C218120B4CC9
:100BF300FF24D0B40A00501A75F00A780930D505DD
:100C030008B6FF0106C6A426F620D5047002D21743
:100C130080D924CFB41A00EF5004C2E5D218020DD4
:100C230092D21580C6D21480C0D21680BCD2D58091
:100C3300BAD21980B47F20120B802016077401B535
:100C4300090040F1120B3DFF120B80020BBAD21CBC
:100C5300D21A8095120B3DFB120B3DFA120B3DF994
:100C63004A4B700679637A0E7BFF20162EE50960E6
:100C73002A7E008E8275830012084360060EEE659D
:100C83000A70F0C2D5EBC0E0EAC0E0E9C0E0EE12C2
:100C93000DD9D0E0F9D0E0FAD0E0FB12082AFF60CA
:100CA300AAEBC0E0EAC0E0E9C0E0120B80D0E02488
:100CB30001F9D0E03400FAD0E0FBE50A0460DCD5AA
:100CC3000AD980877BFF7A0D79D5D216809C79105B
:100CD30080027908C21AC21C8008D2D5790A80041E
:100CE300790AC2D5E50A047002F50AE4FAFDFEFFAB
:100CF300120B3DFC7B08201513120B3DFD7B1030BE
:100D0300140A120B3DFE120B3DFF7B20EC3382D500
:100D130092D55013C3E43014069FFFE49EFEE420F3
:100D230015039DFDE49CFCE4CBF8C215EC700CCFDD
:100D3300CECDCCE824F8F870F38017C3EF33FFEE81
:100D430033FEED33FDEC33FCEB33FB994002FB0F39
:100D5300D8E9EB301505F8D0E0C448B215C0E00A75
:100D6300EC4D4E4F78207B0070C2EAB50A0040BCC0
:100D7300C0E0120DDBD0F0D0E0201504C4C0E0C405
:100D8300B215C0F0120B69D0F0D5F0EB020BBA121A
:100D93000B170C57530CD1580C284C0C24420CD570
:100DA3004F0CDD440CDD490C3D430CE3550CC746A9
:100DB3000CC7450CC7470E83500C2C2D0C302E0C42
:100DC300532B0C34230C51200E6C2A0BEC480000DF
:100DD3000C4B3F3F3F00790AA2D520171430190965
:100DE300B910020404B9080104A2D5201A02500163
:100DF300042016689216B509005034C0E07F2030F5
:100E030017197F30A216721A7219500F120E32C2BE
:100E130016C21AC219C21C7F30800F301903E9C0F1
:100E2300E0120B80301903D0E0F9D0E0B509CC30E3
:100E330019177F30B9100C120B807F583018077FB9
:100E4300788003B90803120B803016057F2D020B3F
:100E5300807F20201CF87F2B201AF322921680CF4C
:100E6300286E756C6C2900D215120B3D3015F8C233
:100E730015780930D50108F6020BEC2D504349587B
:100E8300120B3D2403B405004001E4900E7E93123F
:100E93000B71743A120B71D217750904020CD1ADA0
:100EA30007ED707EC28C12082AFED39403748094DB
:100EB3008040037FFF22E58954FC4EF589900001B1
:100EC300120843FED394027480948040037FFF2270
:100ED300EEFF7E007006538E7F5389FBEF64014E55
:100EE3007006438E805389FBEF64024E700343897F
:100EF30004900002120843FFE58F54FE4FF58F90D4
:100F030000031208AEE5F0F58C9000031208AEF56D
:100F13008A9000061208437004C28C8002D28C7F30
:100F23000022ED64016003020FB2C28E12082AFE92
:100F3300D394037480948040037FFF22EEC454F063
:100F4300FFE58954CF4FF589900001120843FED382
:100F530094027480948040037FFF22EEFF7E007032
:100F630006538EBF5389BFEF64014E7006438E4014
:100F73005389BFEF64024E7003438940900002120D
:100F8300084325E0FFE58F54FD4FF58F90000312D2
:100F930008AEE5F0F58D9000031208AEF58B9000D6
:100FA300061208437004C28E8002D28E7F0022EDA7
:100FB3006402706B538EEF900001120843FF7E00B2
:100FC3007006538EFB538EF7EF64014E7006438E0B
:100FD30004538EF7EF64024E7003438E08900002B1
:100FE30012084325E025E0FFE58F54FB4FF58F9072
:100FF30000031208AEE5F0F5D69000031208AEF533
:10100300D790000512084390FEA2F0900006120844
:1010130043C454F0FFE58E54EF4FF58E7F0022ED6D
:101023006403707453D1F7900001120843FED39404
:10103300027480948040037FFF22EEFF7E007006DF
:1010430053D1FD53D1FBEF64014E700643D10253DC
:10105300D1FBEF64024E700343D1049000021208E7
:1010630043FFE5D154FE4FF5D19000031208AEE5DE
:10107300F0F5D49000031208AEF5D59000051208E0
:101083004390FEA3F090000612084333333354F821
:10109300FFE5D154F702111EED640460030211242D
:1010A30053D17F900001120843FD7C00D394027456
:1010B30080948040037FFF22ED4C700653D1DF53B1
:1010C300D1BF9000011208436401700643D120533D
:1010D300D1BF9000011208436402700343D14090D2
:1010E3000002120843C454F0FFE5D154EF4FF5D189
:1010F3009000031208AEFDACF0ECF5D2AF058FD330
:1011030090000512084390FEA4F0900006120843D5
:10111300C43333335480FFE5D1547F4FF5D17F007F
:10112300227FFF22EFD394077480948040037FFFD4
:101133002212082AFED394037480948040037FFF15
:1011430022EF7044EE700B900001120843F45293A7
:10115300529412082A6401700B9000011208434252
:1011630093F4529412082AFE6402700A900001124A
:10117300084342934294EE6403700D9000011208F9
:1011830043FEF45293EE4294EF6401704612082A30
:10119300FE700B900001120843F452915292EE64D8
:1011A30001700B9000011208434291F4529212080D
:1011B3002A6402700A90000112084342914292127B
:1011C300082A6403700D900001120843FEF4529143
:1011D300EE4292EF6402704612082AFE700B9000F2
:1011E30001120843F452955296EE6401700B90007D
:1011F300011208434295F4529612082A6402700AB7
:101203009000011208434295429612082A64037023
:101213000D900001120843FEF45295EE4296EF64DE
:1012230003704612082AFE700B900001120843F463
:1012330052B152B2EE6401700B90000112084342A6
:10124300B1F452B212082A6402700A900001120823
:101253004342B142B212082A6403700D9000011296
:101263000843FEF452B1EE42B2EF64047046120832
:101273002AFE700B900001120843F452B352B4EEED
:101283006401700B90000112084342B3F452B4128C
:10129300082A6402700A90000112084342B342B460
:1012A30012082A6403700D900001120843FEF452E1
:1012B300B3EE42B4EF6405704612082AFE700B9039
:1012C3000001120843F452C952CAEE6401700B9034
:1012D300000112084342C9F452CA12082A64027078
:1012E3000A90000112084342C942CA12082A640341
:1012F300700D900001120843FEF452C9EE42CAEF8A
:101303006406704612082AFE700B9000011208430F
:10131300F452CB52CCEE6401700B900001120843DF
:1013230042CBF452CC12082A6402700A90000112D4
:10133300084342CB42CC12082A6403700D9000018B
:10134300120843FEF452CBEE42CCEF64077049120D
:10135300082AFF7E00700B900001120843F452E14B
:1013630052E2EF64014E700B90000112084342E118
:10137300F452E212082A6402700A90000112084330
:1013830042E142E212082A6403700D900001120840
:1013930043FFF452E1EF42E27F0022C0E0C083C08A
:1013A30082C0D075D000C004C005C006C00730D8C5
:1013B3007BC2D8AFDAC3EF944874809480401F9007
:1013C3000429E0FEA3E0FF900432E02FF090043103
:1013D300E03EF0E0FEA3E0F5EAEEF5FA804EE5DA52
:1013E3005411604890043FE0FFA3E0900437CFF02E
:1013F300A3EFF0AFFA90043FE4F0A3EFF0E0FEAD0B
:10140300EA7C00E42DFFEC3E90043FF0A3EFF09064
:101413000437E0FEA3E0FFC3900440E09FFF900485
:101423003FE09E900431F0A3EFF0D21D30D97BC290
:10143300D9AFDBC3EF944874809480401F90042B92
:10144300E0FEA3E0FF900434E02FF0900433E03E8D
:10145300F0E0FEA3E0F5EBEEF5FB804EE5DB541187
:101463006048900441E0FFA3E0900439CFF0A3EF7C
:10147300F0AFFB900441E4F0A3EFF0E0FEADEB7CB2
:1014830000E42DFFEC3E900441F0A3EFF09004390B
:10149300E0FEA3E0FFC3900442E09FFF900441E01D
:1014A3009E900433F0A3EFF0D21E30DA7BC2DAAFA2
:1014B300DCC3EF944874809480401F90042DE0FEB9
:1014C300A3E0FF900436E02FF0900435E03EF0E017
:1014D300FEA3E0F5ECEEF5FC804EE5DC541160482C
:1014E300900443E0FFA3E090043BCFF0A3EFF0AF01
:1014F300FC900443E4F0A3EFF0E0FEADEC7C00E4E9
:101503002DFFEC3E900443F0A3EFF090043BE0FE8C
:10151300A3E0FFC3900444E09FFF900443E09E9048
:101523000435F0A3EFF0D21F20DB030215B6C2DBB4
:1015330090FD54E0C3944874809480402190042F1C
:10154300E0FEA3E0FF900424E02FF0900423E03EAC
:10155300F0E0FEA3E090FD55F0EEA3F0805590FD82
:1015630054E05411604D900445E0FFA3E090043D26
:10157300CFF0A3EFF090FD56E0FF900445E4F0A315
:10158300EFF0E0FE90FD55E07C002400FFEC3E9080
:101593000445F0A3EFF090043DE0FEA3E0FFC39009
:1015A3000446E09FFF900445E09E900423F0A3EFE0
:1015B300F0D22030DF02C2DFD007D006D005D0043E
:1015C300D0D0D082D083D0E032C0E0C083C082C00C
:1015D300D090FA12E030E006E054FEF0D21090FA18
:1015E30002E030E014E054FEF0D211300904C209E5
:1015F300D20F300804C208D20D90FA32E030E00670
:10160300E054FEF0D20390FA32E030E204E054FBFF
:10161300F090FA3AE030E006E054FEF0D20090FA9F
:101623003AE030E104E054FDF090FA42E030E006A5
:10163300E054FEF0D20590FA42E030E204E054FBBD
:10164300F090FA4AE030E006E054FEF0D20190FA5E
:101653004AE030E104E054FDF090FA52E030E00655
:10166300E054FEF0D20690FA52E030E204E054FB7C
:10167300F090FA5AE030E006E054FEF0D20290FA1D
:101683005AE030E104E054FDF090FA62E030E00605
:10169300E054FEF0D20790FA62E030E204E054FB3B
:1016A300F090FA6AE030E006E054FEF0D20490FADB
:1016B3006AE030E104E054FDF090FA22E030E011FA
:1016C300E054FEF0E5CE30E406D213D2A28002D27B
:1016D3001290FA22E030E104E054FDF090FA22E0A7
:1016E30030E204E054FBF090FE53E030E004E4F019
:1016F300C20A90FA72E030E031300E09C20E90FA5D
:1017030071E4F08020900455E024FFF0900454E04D
:1017130034FFF0E07002A3E090FA717005F0D2C2DA
:10172300800374A0F090FA72E4F0D0D0D082D0831A
:10173300D0E032C0E0C0F0C083C082C0D075D0001A
:10174300C000C001C002C003C004C005C006C0077A
:1017530053BCDFE5DEAFBD30E50BEFFFADBEED9073
:1017630003E3CF80239003E3E4F0A3EFF0E5BEC4EB
:10177300540FFDE0C4F8540FC868FF9003E3E0C4BE
:1017830054F048FEEF4DFFEEF0A3EFF09003E3E0DB
:10179300FEA3E0FFE5BC540F25E02498F582E43472
:1017A30003F583EEF0A3EFF07BFF7A0079B69003A5
:1017B30098E0FFA3E09003E8CFF0A3EFF0120BA8AB
:1017C300E5BC540F24F760222409705CD39003E432
:1017D300E094A49003E3E0940640059003978043CC
:1017E300E5BC54F04440F5BC804D7BFF7A0079BAE8
:1017F300120BA8900396E014600D1460102402707D
:101803001F78AC7C03800A78BE7C03800478D07C8C
:10181300037D017B017A03799A7E007F0912080414
:101823009003E27401F0800FE5BC54F04440FFE5FF
:10183300BC540F044FF5BCD007D006D005D004D05C
:1018430003D002D001D000D0D0D082D083D0F0D04A
:10185300E032E4FDFC7FAEFE121FA57F40121FB3F2
:10186300E4FDFC7FB0FE121FB7E4FDFC7F81FE1296
:101873001FB7E4FDFC7F80FE121FB7E4FDFC7FA1D0
:10188300FE121FB7E4FDFC7FA6FE121FB7E4FDFCAA
:101893007FA8FE121FB7E4FDFC7F3FFE121FB7E4D3
:1018A300FDFC7FC8FE121FB7E4FDFC7FD3FE121FB1
:1018B300B7E4FDFCFFFE121FB7E4FDFC7FD5FE126B
:1018C3001FB7E4FDFC7F80FE121FB7E4FDFC7FD948
:1018D300FE121FB7E4FDFC7FF1FE121FB7E4FDFC0F
:1018E3007FDAFE121FB7E4FDFC7F12FE121FB7E47E
:1018F300FDFC7FDBFE121FB7E4FDFC7F30FE121FF1
:10190300B7E4FDFC7F8DFE121FB7E4FDFC7F14FEE0
:10191300121FB7E4FDFC7FAFFE021FB7C0E0C08318
:10192300C082C0D075D000C006C00790FE84E030EE
:10193300E607E054BFF00219C290FE84E030E53BB5
:10194300E054DFF0900450E06004E4F08071900410
:101953004FE0600DE4F090FE87E0900451F0E080EA
:101963003790FE87E0FF900451E0FE04F074472EA9
:10197300F582E43404F583EFF0804490FE84E03094
:10198300E426E054EFF0E030E10890FE8674FFF0C7
:10199300802D900451E004F02447F582E43404F5EB
:1019A30083E090FE86F0801790FE84E030E310E041
:1019B30054F7F09004507401F090044FF0D221D00A
:1019C30007D006D0D0D082D083D0E032C0E0C0F0C0
:1019D300C083C082C0D075D000C000C006C00790CD
:1019E3000397E0FF6010900453E004F0700F90043D
:1019F30052E004F08007900452E4F0A3F0EF605744
:101A03009003E2E06051E4F0900452E0FEA3E08E24
:101A1300F0120A941A2B00141A31006B1A3800C200
:101A23001A48012600001A5A900396E4800C90038A
:101A330096740180059003967402F0E5BC54F0445B
:101A430041F5BC8012900397E4F09003E204F0E5C3
:101A5300BC54F04440F5BCD007D006D000D0D0D061
:101A630082D083D0F0D0E032787FE4F6D8FD758160
:101A730024021AB2021F80E493A3F8E493A3400361
:101A8300F68001F208DFF48029E493A3F8540724D5
:101A93000CC8C333C4540F4420C8834004F4568095
:101AA3000146F6DFE4800B01020408102040809019
:101AB3001AF7E47E019360BCA3FF543F30E5095459
:101AC3001FFEE493A360010ECF54C025E060A8403D
:101AD300B8E493A3FAE493A3F8E493A3C8C582C834
:101AE300CAC583CAF0A3C8C582C8CAC583CADFE909
:101AF300DEE780BE4204520000410397004103E247
:101B03000141039500540398000000000000000009
:101B130000000000000000000000000041039600E8
:101B23005203AC00000000000000000000000000B1
:101B330000000000005203BE00000000000000008F
:101B4300000000000000000000005203D00000006D
:101B5300000000000000000000000000000000C1C1
:101B630010C111C10CC10B00900001120843FFE525
:101B7300DE54F04FF5DE900002120843C43354E004
:101B8300FFE5DE54DF4FF5DE12082AD3941F74807D
:101B930094805037900003120843FFD3940174805C
:101BA30094805027900004120843FED3940374805A
:101BB30094805017EEC43354E0FEEFC433333354F0
:101BC300804EFF12082A4F90FEA8F022C0E0C08387
:101BD300C082C0D075D000C007E5AC5401602C535F
:101BE300ACFE90000DE0C39440748094804002E406
:101BF300F090000DE0FF04F074142FF582E434013B
:101C0300F583E5ADF090000E7405F0E5AC54026089
:101C13000853ACFD90000CE4F0D007D0D0D082D0B4
:101C230083D0E032C0E0C083C082C0D075D000C092
:101C330007E5845401602C5384FE900012E0C394A2
:101C430040748094804002E4F0900012E0FF04F0BE
:101C530074D42FF582E43401F583E585F090001305
:101C63007405F0E584540260085384FD900011E488
:101C7300F0D007D0D0D082D083D0E032C0E0C08390
:101C8300C082C0D075D000C007E59A30E02C539ACB
:101C9300FE900008E0C39480748094804002E4F0D6
:101CA300900008E0FF04F074942FF582E43400F50B
:101CB30083E59BF09000097405F0E59A30E1085341
:101CC3009AFD900007E4F0D007D0D0D082D083D023
:101CD300E032C0E0C083C082C0D075D000C00730FE
:101CE300982BC298900003E0C39480748094804042
:101CF30002E4F0900003E0FF04F074142FF582E493
:101D03003400F583E599F09000047405F0309907E9
:101D1300C299900002E4F0D007D0D0D082D083D013
:101D2300E032EFFBD39401748094805009EB70048C
:101D3300C2A98002D2A9EDFF7E00D39403748094DC
:101D4300805029EF700553B7FDC2B9EF64014E709F
:101D53000553B7FDD2B9EF64024E700543B702C213
:101D6300B9EF64034E700543B702D2B97F0022EF87
:101D7300FBD39401748094805009EB7004C2AD804E
:101D830002D2ADEDFF7E00D394037480948050297A
:101D9300EF700553B7DFC2BDEF64014E700553B753
:101DA300DFD2BDEF64024E700543B720C2BDEF64BE
:101DB300034E700543B720D2BD7F0022EFFBD394BF
:101DC30001748094805009EB7004C2AC8002D2ACE1
:101DD300EDFF7E00D39403748094805029EF700547
:101DE30053B7EFC2BCEF64014E700553B7EFD2BCDB
:101DF300EF64024E700543B710C2BCEF64034E702C
:101E03000543B710D2BC7F0022C0E0C083C082C0AC
:101E1300D075D000C007E5CE30E404C222802990FB
:101E23000457E0C39480748094804002E4F09004EB
:101E330057E0FF04F074152FF582E43403F583E5CE
:101E4300CFF09003147405F075CDC0D007D0D0D077
:101E530082D083D0E032AC07121FC87F78C2CD0096
:101E630000000000E4FEEEC3940874809480502EBA
:101E7300AD07ED548064807009D2CC0000000000EF
:101E83008002C2CC0000000000EF25E0FFD2CD00AD
:101E930000000000C2CD00000000000E80C82290A8
:101EA30004187403F0E4900417F07B017A047917A3
:101EB3007F0312112790040E7440F0A37401F0A362
:101EC300120A630001C2009004157401F0E4A3F048
:101ED3007B017A04790E7F011200C67D017F011216
:101EE3001DBF53A23F22E4F9E9FF7E00C3940874A7
:101EF3008094805031EF24B0FFEE33FEE4FDFC12FA
:101F03001FA5E490040EF090040EE0C39480748047
:101F13009480500F7D017C00E4FFFE121FB7E004A4
:101F2300F080E40980C22290040E741FF0E4900450
:101F330011F0A304F090040F740FF0A37401F0FBED
:101F43007A04790E121B6B7F0112002EE4FD7F01D0
:101F5300021D72E490040EF0A304F0E4A3F0A37452
:101F6300F6F0A374A0F09004147401F0FB7A0479E2
:101F73000EE4FF120EA2E4FD7F01021D2543BA8089
:101F8300121F2A7F147E0012201C121EA2121F563B
:101F9300D2AF121855121EE9E5BC54F04440F5BC0B
:101FA30080FE121FB7E4FDFC7F02FE121FB77F10F5
:101FB300E4FDFCFEAB07AA06ED4C60030220C3AFB1
:101FC300031220B522D2CD0000000000D2CC0000C5
:101FD300000000C2CC0000000000C2CD00000000E1
:101FE3000022C0E0C083C082E5F630E30353F6F776
:101FF30090FF05E06002E4F0D082D083D0E032129B
:102003001E6012200DAF04121E60D2CD000000002E
:1020130000C2CD0000000000227D607C09ED1D7030
:10202300011C144C70F7EF1F70011E144E70EA224E
:10203300D2CD0000000000C2CC0000000000D2CCD2
:10204300000000000022C0E0C083C08290045674E8
:1020530002F0D082D083D0E032C0E0C083C082904F
:1020630004567403F0D082D083D0E032C0E0C08342
:10207300C0829004567404F0D082D083D0E032C082
:10208300E0C083C0829004567405F0D082D083D020
:10209300E032C0E0C0D053E6BFE5E61392C8D0D02B
:1020A300D0E0328F999000027401F0900002E0704A
:1020B300FA22121E5912200DE4FF122002022033CD
:0E20C300121E5912200D7F40122002022033FF
:00000001FF
